:400000000080002011000000290700002907000008B5044B1A6803F53F5302331A6000F0A3FB00BFFA46004010B5054C237833B9044B13B10448AFF300800123237010BD79
:400040004881FF1F00000000E81E0000084B10B51BB108490848AFF300800848036803B910BD074B002BFBD0BDE81040184700BF000000004C81FF1FE81E0000C880FF1FF6
:400080000000000010B500F0CBFC00F0E3FC054C208000F069FD012000F06CFD0123A37010BD00BF6481FF1F08B5034800F04EFD022000F067FF08BD8500000008B501208B
:4000C00000F058FD012000F077FD002000F052FD012000F055FD00F011FD00F08BFC064B9B78012BFBD1002000F04AFD024B00229A70188808BD00BF6481FF1F10B504469D
:40010000002000F04BFFFFF7D9FF2080032000F045FFFFF7D3FF6080012000F03FFFFFF7CDFFA08010BD00BF10B582B004466846FFF7E4FFBDF80430BDF80220934209D9FC
:40014000BDF800108B4205D9002323706370FF23A37016E0934209D2BDF800108A4205D900232370FF226270A3700AE0BDF800108B4206D28A4204D2FF23237000236370DF
:40018000A37002B010BD00BF08B500F03BFE00F047FE08BD10B501F001F80446002101F003FA00B900240249204600F041FF10BD0000404008B5002000F03AFE0028FAD004
:4001C00000F048FE80B2FFF7E5FF01F001FA80B208BD00BF38B50024002509E0FFF7EAFF00F0DCFF0146284600F024FF05460134092CF3DD0349284601F0D8F801F0E8F9B8
:4002000080B238BD0000204108B5012000F0AEFE00F09EFE40F2DC5000F0CEFC00F03AFE08BD00BF08B5002000F0A0FE00F090FE40F2DC5000F0C0FC00F02CFE08BD00BFDB
:4002400008B500F01DFB08BD10B59EB004466422002105A801F01BFA6268A368E16820696469029401900091064905A801F0D2FA1EAB18440A2300F8643C05A800F01AFBBC
:400280001EB010BDEC1E000038B50546142001F0EBF90446C5600023836003606B1E4360A80001F0E1F92061204638BD8268C068824214BF00200120704700BF8068B0FA13
:4002C00080F04009704700BF38B504460D46FFF7EDFF68B963680133E168B3FBF1F201FB12336360226942F82350A3680133A36038BD00BF08B5054A536801335360002168
:40030000034B1868FFF7E0FF08BD00BF6481FF1FA081FF1F08B5054A5368013353600121034B1868FFF7D0FF08BD00BF6481FF1FA081FF1F08B5054A53680133536002215A
:40034000034B1868FFF7C0FF08BD00BF6481FF1FA081FF1F10B50446FFF7B0FF70B92269236852F823000133E168B3FBF1F201FB12332360A368013BA36010BD4FF000406C
:4003800010BD00BF30B59DB010B101281CD02AE002A8FFF7C9FEFFF71DFF9DF80820134C62609DF80930A3609DF80A10E160206101256561019000910D4903A801F02AFAE2
:4003C0002046FFF741FF0EE0084B5B695BB1FFF71BFF4FF4FA6000F0EFFBFFF723FF4FF4FA6000F0E9FB1DB030BD00BF8081FF1FFC1E000008B562B6104800F087FA104898
:4004000000F0F2FD0F4800F03DFC0A20FFF73CFF0D4B1860FFF748FEFFF7B6FEFFF710FF0A4B5B68002BFBD0013B084A5360064B1868FFF78FFFFFF7A5FFF1E71503000019
:40044000F502000035030000A081FF1F6481FF1FFEE700BFF0B40022174611E050F82760F3B226F0FF0608E001EB420511F812406D78A5550132013BDBB2002BF4D101374B
:400480001F2FEBD9F0BC704708B50A46002101F0FEF808BDF8B5164B1B78DBB2154E3478E4B2154F3D78EDB203F00701134A11701B090132137044F00303337045F0030397
:4004C0003B7004220E4B1A70802203F2F4731A70402203F21F231A70202203331A700A2000F080FB3D7034704422064B1A70F8BDCF010049F8460040F94600406E580040A3
:400500000D5100407658004008B501F0B5F808BD38B50122374B1A80182337490B7002310A8002310B7002310A801C21334A11704FF49C71023211800232137045F6BF5113
:40054000023211800232137004222D492D48FFF7DBFF02222C4B1A7008224FF040231A70032103F500731970284B1B78DBB228490B70284B1A8041F25122023B1A8000245E
:4005800019250CE0244B1B7803F0010343EA440404F003044FF4F07000F036FD013D0DB1032CEFD115B90320FFF752FF1B4B4FF480721A8007221A70002219490A70482071
:4005C000023108701A700222033B1A7004220A331A70144A137843F01F031370013A137843F001031370013A137843F08003137038BD00BF80400040824000408A400040ED
:40060000CC070048004100400043004008010049A146004022420040254200400440004006400040A243004038B572B62D4A137843F00403137000240CE02B4D63001919B7
:400640004A0011462A44084691882858FFF71CFF0134E4B2062CF0D924494FF09040FFF7F9FE234A137843F0020313701032137843F0020313701F4C237843F040032370FA
:40068000A2F58632513A137843F010031370082219491A48FFF738FF082219491948FFF733FF082218491948FFF72EFF082218491848FFF729FF184A137843F00803137016
:4006C000164D61232B70FFF723FF81232B700122134B1A70FFF7DEFE0E2221461148FFF713FF38BDE8460040241F00008000004803500140A0430040AC0700480251004099
:40070000B4070048C2510040BC07004812510040C407004822510040224300400048004004000840B043004008B500F071FF03680C2B00D1FEE7FEE708B5094B1A68104402
:40074000084BC31A802B02DC054B186005E000F05FFF0C2303604FF0FF32104608BD00BFCC80FF1FB882FF1F08B5104E104D16E029686B68AC68002204E051F8040B43F8A8
:40078000040B0432A242F8D1E868002203E0002143F8041B04328242F9D11035013E002EE6D100F03BFFFFF725FEFEE701000000A81F000008B5104A104B1A60104A136899
:4007C00043F40073136000230AE0032B03D80D4A52F8231000E00C490C4A42F8231001332F2BF2D90A4B1A780A4B1A70074A0A4B1A60FFF719FF08BD0004FA050CED00E00C
:4008000014ED00E000000000290700000080FF1FBC760040C080FF1F08ED00E07222084B1A702022A3F201131A700622A2331A70472210331A70002250331A70704700BF1C
:400840008965004010B500F0E7FB04460B4A137843F020031370A2F20112137843F01003137002F58172137843F01003137000F093F9204600F0D4FB10BD00BF996500400C
:4008800008B5054B1B7823B9FFF7C8FF0122024B1A70FFF7D7FF08BD6C81FF1F034B1B7813F0040FFAD1024B187070476A6500404965004038B5074B1B782BB938BDFFF77D
:4008C000EDFF0134A4B201E005460024285D0028F5D138BD6C81FF1F014B1B685864704708ED00E04001C0B2014B1870704700BF01E400E00222014B1A60704700E100E083
:400900000222014B1A60704780E100E010B50446FFF7F6FF2046FFF7DFFF0720FFF7E2FFFFF7E8FF10BD00BF024A137843F080031370704775640040014B1880704700BF00
:4009400008680040014B1880704700BF88680040014B1880704700BF48680040014B1870704700BF85640040014B1878704700BF65640040014B188880B27047A868004000
:4009800008B501E0FFF7F6FFFFF7EEFF10F0100FF8D108BD10B5154A137803F0C00343F0090313701F32137843F001031370104C237843F00103237040F2E730FFF7BCFFA6
:4009C00040F2E730FFF7BEFF40F2F310FFF7C0FF0420FFF7C3FF00F01FFB237843F01003237000F01DFBFFF7CBFF10BD756400409564004008B5054B1B7823B9FFF7CAFF95
:400A00000122024B1A70FFF78FFF08BD6E81FF1F024A137843F080031370704771640040024A137803F07F031370704771640040014B1870704700BF81640040014B1878A4
:400A4000704700BF61640040014B1880704700BF00680040024B1B78024B188880B270470064004080680040014B188880B2704780680040014B1880704700BF4068004038
:400A8000014B1880704700BF6068004008B501E0FFF7EAFFFFF7D2FF10F0400FF8D108BD08B5144A137803F0F80343F001031370137803F0FC0343F008031370FFF7E6FF4C
:400AC0004FF6FE70FFF7D6FF0020FFF7BDFF0020FFF7AEFFFFF7B2FF4FF6FE70FFF7D0FF00F09AFA044A137843F01003137000F097FA08BD716400409164004008B5054B01
:400B00001B7823B9FFF7CCFF0122024B1A70FFF77FFF08BD6F81FF1F014B1B689864704708ED00E04001C0B2014B1870704700BF02E400E00422014B1A60704700E100E0C6
:400B40000422014B1A60704780E100E010B50446FFF7F6FF2046FFF7DFFF0720FFF7E2FFFFF7E8FF10BD00BF0422014B1A60704780E200E0014B1870704700BF74640040AF
:400B8000044A137803F0DF03400100F0200018431070704700510040054A137843F0080313701032137843F008031370704700BFA243004001BE704710B5044605E0084B92
:400BC000186800F021FAA4F50044B4F5004FF6D8034B586800FB04F000F016FA10BD00BFD080FF1F08B5034B1B7A00FB03F000F00BFA08BDD080FF1F70B504460E46074B05
:400C00001D681F2802D90020FFF7D4FF04F01F04103455F8240045F8246070BD08ED00E038B504460D46072902D90020FFF7C2FF1F2C02D90020FFF7BDFF04F01F0000F12D
:400C4000604000F564406D01EDB2057038BD00BF014B1B681865704708ED00E04001C0B2014B1870704700BF04E400E01022014B1A60704700E100E01022014B1A60704749
:400C800080E100E010B50446FFF7F6FF2046FFF7DFFF0720FFF7E2FFFFF7E8FF10BD00BF08B50A280FD00C2802D0082806D102E04FF4805209E04FF4807206E00020FFF76C
:400CC00079FF002201E04FF480620021084B198042F2107303FB02F313F5806301D503F2FF73DB12034A13600022034B1A8008BDB282FF1FAC82FF1FB082FF1F10B500F056
:400D00008BF904461E4A137843F0010313701032137843F0010313701A3A137843F0010313701032137843F00103137002F5AA521232137843F0030313701822114B1A70F3
:400D4000013B1A7842F040021A701A7802F0FC021A70C822053B1A700222A3F597530C3B1A70094A137843F0080313700A20FFF739FF0122054B1A60204600F051F910BD1F
:400D8000AB43004006590040275B004080E200E010B504460A280DD00C2802D0082804D101E0C22207E0422205E00020FFF702FFC22200E08222034B1A702046FFF770FF22
:400DC00010BD00BF0259004008B5102000F050F807210020FFF724FF07490020FFF70CFF064A137843F0060313700C20FFF7D0FF0022034B1A8008BD6D0E00000159004066
:400E0000A882FF1F08B5054B1B7823B9FFF7DCFF0122024B1A70FFF771FF08BD7081FF1F024A137843F00103137070470059004010B5074B1B7813F0010401D10028F8D094
:400E400024B10120FFF7CEFE014B1B78204610BD01590040034B188880B2034B1B88C01A00B27047A05B0040B082FF1F704700BF034B1A7800F0F80010431870704700BFA0
:400E800002410040024A137843F080031370704772640040024A137803F07F031370704772640040014B1870704700BF02640040014B1870704700BF42640040014B187042
:400EC000704700BF22640040014B1870704700BF82640040014B1878704700BF62640040014B1878704700BF5264004008B501E0FFF7F6FFFFF7EEFF10F0100FF8D108BD8D
:400F000010B5114A137803F0C00343F0090313700E4C237843F001032370FF20FFF7C2FFFF20FFF7C5FF9620FFF7C8FF0020FFF7CBFF00F071F8237843F01003237000F010
:400F40006FF8FFF7D3FF10BD726400409264004008B5054B1B7823B9FFF7D2FF0122024B1A70FFF78FFF08BD7181FF1F044A137803F0F703C00000F0080018431070704783
:400F8000C0510040044A137803F0CF03000100F0300018431070704720510040044A137803F0F303800000F00C0018431070704720510040014B1B68D864704708ED00E0C6
:400FC0004001C0B2014B1870704700BF03E400E00822014B1A60704700E100E00822014B1A60704780E100E010B50446FFF7F6FF2046FFF7DFFF0720FFF7E2FFFFF7E8FFCE
:4010000010BD00BF000000000230800803D000BF01380046FCD17047EFF3108072B6704780F31088704700BF80F0004002E000BF81F0004142001FBF5FEA410392EA030FC5
:401040007FEA226C7FEA236C6AD04FEA1262D2EB1363C1BFD218414048404140B8BF5B42192B88BF704710F0004F40F4000020F07F4018BF404211F0004F41F4000121F0DB
:401080007F4118BF494292EA030F3FD0A2F1010241FA03FC10EB0C00C3F1200301FA03F100F0004302D5494260EB4000B0F5000F13D3B0F1807F06D340084FEA310102F1FB
:4010C0000102FE2A51D2B1F1004F40EBC25008BF20F0010040EA03007047490040EB000010F4000FA2F10102EDD1B0FA80FCACF1080CB2EB0C0200FA0CF0AABF00EBC250FF
:4011000052421843BCBFD0401843704792F0000F81F4000106BF80F400000132013BB5E74FEA41037FEA226C18BF7FEA236C21D092EA030F04D092F0000F08BF08467047E5
:4011400090EA010F1CBF0020704712F07F4F04D1400028BF40F00040704712F100723CBF00F50000704700F0004343F0FE4040F4000070477FEA226216BF08467FEA236396
:401180000146420206BF5FEA412390EA010F40F4800070474FF0000304E000BF10F0004348BF40425FEA000C08BF704743F0964301464FF000001CE050EA010208BF704770
:4011C0004FF000030AE000BF50EA010208BF704711F0004302D5404261EB41015FEA010C02BF84460146002043F0B64308BFA3F18053A3F50003BCFA8CF2083AA3EBC253C8
:4012000010DB01FA02FC634400FA02FCC2F12002BCF1004F20FA02F243EB020008BF20F00100704702F1200201FA02FCC2F1200250EA4C0021FA02F243EB020008BF20EA14
:40124000DC7070474FF0FF0C1CEAD0521EBF1CEAD15392EA0C0F93EA0C0F6FD01A4480EA010C400218BF5FEA41211ED04FF0006343EA501043EA5111A0FB01310CF0004036
:40128000B1F5000F3EBF490041EAD3715B0040EA010062F17F02FD2A1DD8B3F1004F40EBC25008BF20F00100704790F0000F0CF0004C08BF49024CEA502040EA51207F3AAC
:4012C000C2BFD2F1FF0340EAC250704740F400004FF00003013A5DDC12F1190FDCBF00F000407047C2F10002410021FA02F1C2F1200200FA02FC5FEA310040F1000053EA65
:401300004C0308BF20EADC70704792F0000F00F0004C02BF400010F4000F013AF9D040EA0C0093F0000F01F0004C02BF490011F4000F013BF9D041EA0C018FE70CEAD153B5
:4013400092EA0C0F18BF93EA0C0F0AD030F0004C18BF31F0004CD8D180EA010000F00040704790F0000F17BF90F0004F084691F0000F91F0004F14D092EA0C0F01D142026F
:401380000FD193EA0C0F03D14B0218BF084608D180EA010000F0004040F0FE4040F40000704740F0FE4040F4400070474FF0FF0C1CEAD0521EBF1CEAD15392EA0C0F93EA7C
:4013C0000C0F69D0A2EB030280EA010C49024FEA402037D04FF0805343EA111143EA10130CF000408B4238BF5B0042F17D024FF4000C8B4224BF5B1A40EA0C00B3EB510F3F
:4014000024BFA3EB510340EA5C00B3EB910F24BFA3EB910340EA9C00B3EBD10F24BFA3EBD10340EADC001B0118BF5FEA1C1CE0D1FD2A3FF650AF8B4240EBC25008BF20F02E
:40144000010070470CF0004C4CEA50207F32C2BFD2F1FF0340EAC250704740F400004FF00003013A37E792F0000F00F0004C02BF400010F4000F013AF9D040EA0C0093F06F
:40148000000F01F0004C02BF490011F4000F013BF9D041EA0C0195E70CEAD15392EA0C0F08D142027FF47DAF93EA0C0F7FF470AF084676E793EA0C0F04D14B023FF44CAFDF
:4014C00008466EE730F0004C18BF31F0004CCAD130F000427FF45CAF31F000437FF43CAF5FE700BF4FF0FF3C06E000BF4FF0010C02E000BF4FF0010C4DF804CD4FEA40026E
:401500004FEA41037FEA226C18BF7FEA236C11D001B052EA530C18BF90EA010F58BFB2EB030088BFC81738BF6FEAE17018BF40F0010070477FEA226C02D15FEA402C05D148
:401540007FEA236CE4D15FEA412CE1D05DF8040B704700BF844608466146FFE70FB5FFF7C9FF002848BF10F1000F0FBD4DF808EDFFF7F4FF0CBF012000205DF808FB00BF05
:401580004DF808EDFFF7EAFF34BF012000205DF808FB00BF4DF808EDFFF7E0FF94BF012000205DF808FB00BF4DF808EDFFF7D2FF94BF012000205DF808FB00BF4DF808ED27
:4015C000FFF7C8FF34BF012000205DF808FB00BF42000ED2B2F1FE4F0BD34FF09E03B3EB126209D44FEA002343F0004323FA02F070474FF00000704712F1610F01D142020D
:4016000002D14FF0FF3070474FF00000704700BF014B1868704700BF4081FF1F0E4B70B51E460E4C0025E41AA410A54204D056F8253098470135F8E700F0A4FC084B094C3F
:401640001E46E41AA4100025A54204D056F8253098470135F8E770BD901F0000901F0000901F0000981F0000024B0146186800F063B800BF4081FF1F10B5431E0A449142E8
:4016800004D011F8014B03F8014FF8E710BD03460244934202D003F8011BFAE77047000038B50546002944D051F8043C0C1F002BB8BFE41800F0D2F81E4A1368114613B99E
:4016C0006360146030E0A3420DD92268A018834201BF18685B681218226063600C6023E0A24203D813465A68002AF9D118681918A1420BD12168014458188242196013D153
:4017000010685268014419605A600DE002D90C232B6009E021686018824201BF106852680918216062605C602846BDE8384000F096B838BD7881FF1F70B5CD1C25F00305BD
:4017400008350C2D38BF0C25002D064601DBA94202D90C23336046E000F080F8234B1C681A462146A1B10B685B1B0ED40B2B03D90B60CC18CD501EE08C420BBF63684B68F8
:401780001360636018BF0C4615E00C464968E9E7174C23681BB9304600F02CF820602946304600F027F8431C18D0C41C24F00304A0420DD12560304600F051F804F10B000C
:4017C000231D20F00700C31A0ED05A42E25070BD211A304600F00EF80130EBD10C233360304600F03CF8002070BD00BF7881FF1F7481FF1F38B5064C002305460846236038
:40180000FEF79AFF431C02D1236803B12B6038BDB482FF1F0EB400B54FF402719CB0ADF814106FF00041049107914FF6FF711DAB02900690084853F8042BADF81610006824
:4018400002A9019300F066F8029B00221A701CB05DF804EB03B070474081FF1F704770472DE9F0478E6882469E420C46914698463ED88A8912F4906F3AD02568096902237D
:401880006F1A656905EB450595FBF3F57B1C43449D4238BF1D4653050FD52946FFF74CFF064698B13A462169FFF7E6FEA38923F4906343F08003A38113E02A4600F0E3FA23
:4018C000064670B921695046FFF7EAFE0C23CAF80030A3894FF0FF3043F04003A381BDE8F08726613E44266046466561ED1BA560464528BF464649463246206800F0A8FAF7
:40190000A36800209B1BA36023681E442660BDE8F08700002DE9F04F9DB003938B8980461C060D4616460DD50B695BB94021FFF703FF2860286118B90C23C8F80030CDE0E0
:4019400040236B610023099320238DF82930DFF89CB130238DF82A3037463C4614F8013B1BB9B7EB060910D003E0252BF9D02746F3E74B46324629464046FFF771FF01307E
:4019800000F0A780099B4B4409933B78002B00F0A08000234FF0FF3204930793059206938DF853301A930126052221784E4800F041FA671C049B38B14B4A3C46801A06FA46
:4019C00000F018430490EFE7D90644BF20228DF853201A0744BF2B228DF8532022782A2A03D0079A00210A200BE0039A111D12680391002A10DA524243F002000792049032
:401A00000BE027463B780134303B092B03D800FB02320121F5E701B107923B782E2B1ED17B782A2B0AD1039B02371A1D1B680392002BB8BF4FF0FF33059310E00023194613
:401A40000593781C0A2407463A780130303A092A03D804FB01210123F5E703B1059103223978224800F0E6F940B14023CBEB000003FA00F0049B0137184304903978062254
:401A80001B487E1C8DF8281000F0D4F988B1194B33B9039B073323F007030833039314E003AB00932A46144B04A94046AFF3008007E003AB00932A460F4B04A9404600F0F2
:401AC00093F8B0F1FF3F824603D0099B5344099342E7AB895B0601D4099801E04FF0FF301DB0BDE8F08F00BF501F0000561F00005A1F000000000000611800002DE9F047B4
:401B000091461F460A698B6806469342B8BF1346C9F8003091F843200C46DDF8208012B10133C9F800302368990642BFD9F800300233C9F80030256815F0060510D104F1C1
:401B4000190A07E00123524639463046C04701301AD00135E368D9F800209B1A9D42F1DB94F843302268003318BF012392060FD5E118302081F843005A1C94F845102244C1
:401B8000023382F8431003E04FF0FF30BDE8F08704F1430239463046C0470130F4D02268D9F80050E36802F00602042A08BF5D1B2269A3680CBF25EAE57500259342C4BFE7
:401BC0009B1AED184FF000091A344D4509D00123224639463046C0470130D5D009F10109F3E70020BDE8F0872DE9F04317460A7E85B06E2A984606460C460C9B01F1430E51
:401C000000F0AE8011D8632A22D009D8002A00F0BB80582A40F0CA8081F84520834955E0642A1ED0692A1CD0C0E0732A00F0B08009D86F2A2ED0702A40F0B8800A6842F097
:401C400020020A603EE0752A24D0782A3AD0ADE01A6801F14205111D1960136884F84230A8E021681A6811F0800F02D0111D196008E011F0400F02F10401196002D0B2F961
:401C8000003000E01368002B3CDA2D225B4284F8432037E021681A6811F0800F02D0111D196007E011F0400F02F10401196001D0138800E01368227E5C496F2A14BF0A2216
:401CC00008221BE078225A4984F845202268186812F0800F00F104051D6003D1550601D5038800E00368D00744BF42F0200222601BB9226822F0200222601022002084F822
:401D0000430001E049490A226568002DA56008DB206820F0040020602BB9002D7DD175460CE0002B79D07546B3FBF2F002FB1033CB5C05F8013D03460028F5D1082A0BD117
:401D40002368DA0708D5236962689A42DEBF302305F8013C05F1FF35C5EB0E0323612EE008681A6810F0800F496903D0101D1860136808E010F0400F02F1040018601368FA
:401D800001D0198000E0196000232361754616E01A68111D1960156800216268284600F049F808B1401B6060636804E004F1420584F8422001232361002384F84330CDF8BC
:401DC00000803B4603AA21463046FFF797FE013002D14FF0FF3026E023692A4639463046C0470130F5D023689B0710D5002504F1190907E001234A4639463046C047013051
:401E0000E7D00135E368039A9B1A9D42F2DBE068039B9842B8BF184605E00B7804F1420584F842308AE705B0BDE8F083611F0000721F000010B5C9B202449042034605D080
:401E40001C7801308C42F8D1184610BD002010BD884210B501EB020301D8421E0BE09842FBD28118D21AD34204D013F8014D01F8014DF8E710BD994204D011F8014B02F8EB
:401E8000014FF8E710BDF8B5074615460E4621B91146BDE8F840FFF74FBC1AB9FFF700FC2846F8BD00F015F885420ED929463846FFF742FC044650B131462A46FFF7DCFBBB
:401EC00031463846FFF7ECFB01E03046F8BD2046F8BD51F8040C0028BEBF091851F8043CC018043870470000000000002569202569202569202569202569000052656420F5
:401F000025692C20477265656E2025692C20426C75652025692C207765696768742025690A000000305100404000F051004010000000014000100014014000080040014059
:401F4000000A004C014000020050014020004300232D302B2000686C4C006566674546470030313233343536373839414243444546003031323334353637383961626364AC
:401F800065660000F8B500BFF8BC08BC9E4670474D000000B5070000F8B500BFF8BC08BC9E46704729000000B81F0000C880FF1F800000007001000000000000B882FF1FA0
:401FC0000000E02EC05D00001800000000366E0100000000000000000000000000000000000000000000000000000000000000004E1F00000000000000000000000000008C
:40200000000000000000000000000000000000000000000000000000000000000000000000000000000000000000000000000000E080FF1F00000000000000000000000022
:402040000000000000000000000000000000000000000000000000000000000000000000000000000000000000000000000000000000000000000000000000000000000060
:402080000000000000000000000000000000000000000000000000000000000000000000000000000000000000000000000000000000000000000000000000000000000020
:4020C00000000000000000000000000000000000000000000000000000000000000000000000000000000000000000000000000000000000000000000000000000000000E0
:40210000000000000000000000000000000000000000000000000000000000000000000000000000000000000000000000000000000000000000000000000000000000009F
:020000040003F7
:0200000480007A
:4000000005520040046400400365004050000140310101403A0201402F030140490401403705014005070140590801403D090140050B0140020D0140010F01400416014017
:40004000021701404C1801403F1901405F1A0140471B0140094001400A4101400E42014005430140064501400546014002470140024C0140094D0140065001400251014068
:40008000000801081080118061848177820D850D883889728A0F8B0F0D011101370139803F4040214104420349FF4AFF4BFF4DA04F01501859045A045D025F01604062802B
:4000C00064406540668068406A506BA86C406D206E506FA8820483018C08900193019E03A101A208B002B201B301B408B604BE14BF04C024C105C203C55CC620C70EC81F48
:40010000C9FFCAFFCBFFCDAFCE07CF01D018D280D417D804D904DA04DB04DC02DD22DF05E040E280E440E540E680E840EA50EBA8EC40ED20EE50EFA802020302050207019B
:400140000E400F02150116401C201E481F802001230227102F80300235023A403C023E203F10400141084312450847124E024F0656685D805E085F1064016608670474012C
:400180007D40C090C290C410CA80CC81CE88D0EFD210D670D870DE10E20403040A040B0114011A071F02220827012B0230013202330234083501360437043F1440204103AD
:4001C00045D14620480B49FF4AFF4BFF4DA04F04501852805405580459045A045B045C205F01604062C06440654066C068C06AC06CC06EC0840292019301A101B001B3019F
:40020000B602BE40BF04D804D904DC02DF010108051009020E200F08168019011A021D701E601F102108272929012F14310235403D013E20452046204F0956205E405F0991
:40024000768083208508910195409C019D029F01A402A508A702AC10AD80C044C268C410CA61CC11CEA0D060D6D0E6080301230131014015410349FF4AFF4BFF4DA04F04E6
:40028000501859045A045B045C405D045F01604062C06440654066C068C06AC06CC06EC083018A048E019E049F02A202A401A902B001B302B404B501B602BC82BE10BF044F
:4002C000C014C102C5D0C712C832C9FFCAFFCBFFCDAFCE0FCF04D018D280D405D604D804D904DA04DB04DC44DD44DF05E040E2C0E440E540E6C0E8C0EAC0ECC0EEC0060687
:400300000E01164017041C401D801E091F802102241027042B802F0435403A023E02438845804604470248014F01560657085C405E085F016501680369406B0276407D40FA
:400340008101954097089940A402A502A702AC01AD0AAE01C0C0C280C430CA21CC10CE81D0BAD208D6D0D880DE10E240A702AF04B410EA10EE0401080702090C0E01110C08
:4003800013031503170C1A011F10210F25042B102D0E2F01300131013510370E39023E013F104063410442054402450C470E481149FF4AFF4BFF4C624DA04EF04F41500CD9
:4003C00054185604580459045A045B045C305D335F016640670269106A306B106D106E106F12800582028539860C880389398D088F32900C940C98039C0C9D01A110A20CB4
:40040000A34CA40AA601A810A920AB0CAE0CB140B210B306B403B501B60CB738BE04BF04D804D904DC33DF0100080110038004080620070108400B980F081004114012116F
:400440001302182019201A011F01200821402201232C240A274129202A102B802C402D402E042F0832403608374239943B883E123F04445047284C014E084F1857085E01A3
:40048000650266206702942098049D02C08EC24FC40FCAF5CCD8CEEED0E0D230D680D8B0EE048D0294209804B004E2409420E6088010B802BE01D804DF011B02A70206013B
:4004C0000B010C0214021C02240228013002320133013E01580459045C115F01814C83A38409850C8610888089048A038D039030920C9340942C95F39611970C98409BB3BF
:400500009C1C9DFF9E22A014A108A410A54FA790A902AD41B21FB30FB460B57CB680B78CB820BA02BBA8BE40C053C102C6CBC70EC81CC9FFCAFFCBFFCEF0CF44D00CD6028C
:40054000D710D804D904DA04DB04DC33DD33DF01E6C0EA40EB02001003200620070208880B880C400F12108013041718181019A01B211E602208231A271028012A1A305074
:400580003209382839803A013E203F204008412043084A024B80508851105A4069146A807014721678017B8085809180920295149694971098109A109C409E039F02A7806F
:4005C000C0A6C2AFC46CCA0FCC0FCE2FD006D208D608E0080401060E075509030A1C0B44100111731216130C19731A031B041C1C1E03212A2344260828202B08300F310F00
:4006000032203330341A374039083A223B023E043F444003450449FF4A074BFF4C404D204EF04F0550085401580459045A045B045C335D335F01604061A8624063208701AF
:400640008A0992059E04A101AE02B002B101B204B401B608BE04C050C104C5D0C650C721C83AC9FFCAFFCBFFCDA0CF04D018D280D407D804D904DA04DB04DC11DD11DF01C2
:40068000E040E2C0E440E540E6C0E8C0EAC0ECC0EEC0000401200608088009020B080E800F42100813041740180419151D081E801F60210622422440288029212F40313260
:4006C000380839203E0841144310450947084B044F415004530C55015608571159045A805B115C405E205F097740872088088B018F809120970C99209C80A008A210A52032
:40070000A602A798B208B302B601B708C046C29BC486CA85CC05CE46D082D210D6FFE408300233203640370838408308CCF0CE10E22008205F8083809440A402A640A7200D
:40074000C240D620E2800502500480028C409440A402A720AC20AE40C020D420E220EC10EE40AB20AD02B404EC10EE200108062067088508C00CD8011B049708B220C60811
:40078000EE019708AB04871097081280731087048E8093109708C408DC01E202001D08050A100C08100A1C0A00FF010340282800080004004884840084000000000B0B0028
:4007C0000000000003BCBC00800000000E001801000000000000000000000000000000000000000000000000000000000000000000000000000000000000000000000000D7
:4008000000000000000000000000000000000000000000000000000000000000000000000000000000000000000000000000000000000000000000000000000000000000B8
:400840000000000000000000000000000000000000000000000000000000000000000000000000000000000000000000000000000000000000000000000000000000000078
:400880000000000000000000000000000000000000000000000000000000000000000000000000000000000000000000000000000000000000000000000000000000000038
:4008C00000000000000000000000000000000000000000000000000000000000000000000000000000000000000000000000000000000000000000000000000000000000F8
:0200000490006A
:0400000000004005B7
:0200000490105A
:04000000BC90ACAF55
:0200000490303A
:02000000BAAD97
:0200000490402A
:4000000000000000000000000000000000000000000000000000000000000000000000000000000000000000000000000000000000000000000000000000000000000000C0
:400040000000000000000000000000000000000000000000000000000000000000000000000000000000000000000000000000000000000000000000000000000000000080
:400080000000000000000000000000000000000000000000000000000000000000000000000000000000000000000000000000000000000000000000000000000000000040
:4000C0000000000000000000000000000000000000000000000000000000000000000000000000000000000000000000000000000000000000000000000000000000000000
:0200000490501A
:0C00000000012E16106900012E24CB1602
:00000001FF